:020000040000FA
:0400000000EF08F015
:020004000000FA
:0400080004EF08F009
:040018000CEF08F0F1
:0410000006EF08F0FF
:08100800D3EF08F00F015D6B4E
:101010005B6B5C6B5E6B5F6B0F0E936E956A8C6A9D
:10102000966A8D6AF19E94829296898692849292B3
:10103000949492807F94C16AC280C282C09EBA8416
:10104000BD86BD84180ED56E320ECD6EF29EF29C1A
:10105000F28AF298F284F29284848490380E836E3D
:101060008494A5EC09F084848490380E836E849473
:10107000A5EC09F0848484900F0E836E8494A5EC13
:1010800009F084848490020E836E8494A5EC09F0A8
:1010900084848490010E836E8494A5EC09F0110E73
:1010A000146E190EAF6EB06AB86AAB8EAC98948CA1
:1010B000948EAC8AAB8889928A988A8A8A8C8A8E26
:1010C00081A0E6EC08F081A202EC09F081A41EECFC
:1010D00009F081A63AEC09F08A888A9A8A8C8A8E6D
:1010E00081A0EDEC08F081A209EC09F081A425ECC7
:1010F00009F081A641EC09F08A888A8A8A9C8A8E46
:1011000081A0F4EC08F081A210EC09F081A42CEC91
:1011100009F081A648EC09F08A888A8A8A8C8A9E1E
:1011200081A0FBEC08F081A217EC09F081A433EC5C
:1011300009F081A64FEC09F09EBAA1EC08F05BEF34
:1011400008F0310EAE62A7EF08F05AEC0AF0320E4A
:10115000AE62ADEF08F081EC0AF0330EAE62B3EF91
:1011600008F08CEC0AF0340EAE62B9EF08F0B3EC84
:101170000AF0350EAE62BFEF08F0BEEC0AF0360E94
:10118000AE62C5EF08F0E9EC0AF0370EAE62CBEFC5
:1011900008F0FCEC0AF0380EAE62D1EF08F021EC5A
:1011A0000BF09E9A1200F29EF2B471EC09F0F28EEE
:1011B0001100030E126EF28ED58ECD8080EC09F0F8
:1011C00056EC09F0D59EF29E89921200E20E106E46
:1011D000240E116ED9EC08F01200E30E106ED00E42
:1011E000116ED9EC08F01200E50E106E650E116E4E
:1011F000D9EC08F01200E60E106EE40E116ED9EC78
:1012000008F01200E80E106E4D0E116ED9EC08F0C9
:101210001200E90E106EA10E116ED9EC08F012004A
:10122000EA0E106EE20E116ED9EC08F01200EC0E10
:10123000106E120E116ED9EC08F01200ED0E106E49
:10124000300E116ED9EC08F01200EE0E106E3F0E4B
:10125000116ED9EC08F01200EF0E106E3E0E116EFA
:10126000D9EC08F01200F00E106E2E0E116ED9ECB3
:1012700008F01200F10E106E110E116ED9EC08F08C
:101280001200F20E106EB30E116ED9EC08F01200BF
:10129000F40E106E260E116ED9EC08F01200F40E4A
:1012A000106ED10E116ED9EC08F01200C2B256EFDA
:1012B00009F0C09EC4CFBEFFC3ACBD98C3BCBD88FF
:1012C000C3AEBD9AC3BEBD8AC28280B4898280A4E7
:1012D00089929EB080EC09F0000E1264120056EF65
:1012E00009F0899210C0D7FF11C0D6FFF294F2A482
:1012F00077EF09F010C0D7FF11C0D6FFF2941200AB
:101300001206150ECF6EA00ECE6E9E901200144ED9
:1013100091EC09F084848480836E8494A5EC09F0B8
:101320001200136E84848490C00E836E8494A5ECA6
:1013300009F013501200FF0E006E076E072E9EEF8D
:1013400009F0002E9EEF09F012009BEC09F012004C
:101350009BEC09F09BEC09F012002D0E87EC09F0D4
:10136000A5EC09F01200440E87EC09F0A5EC09F099
:101370006F0E87EC09F0A5EC09F01200440E87EC23
:1013800009F0A5EC09F06F0E87EC09F0A5EC09F067
:10139000230E87EC09F0A5EC09F01200520E87EC41
:1013A00009F0A5EC09F0650E87EC09F0A5EC09F051
:1013B0001200520E87EC09F0A5EC09F0650E87ECDF
:1013C00009F0A5EC09F0230E87EC09F0A5EC09F073
:1013D00012004D0E87EC09F0A5EC09F0690E87ECC0
:1013E00009F0A5EC09F01200460E87EC09F0A5EC17
:1013F00009F0610E87EC09F0A5EC09F01200460E29
:1014000087EC09F0A5EC09F0610E87EC09F0A5EC7A
:1014100009F0230E87EC09F0A5EC09F01200530E39
:1014200087EC09F0A5EC09F06F0E87EC09F0A5EC4C
:1014300009F06C0E87EC09F0A5EC09F01200530ED0
:1014400087EC09F0A5EC09F06F0E87EC09F0A5EC2C
:1014500009F06C0E87EC09F0A5EC09F0230E87EC7F
:1014600009F0A5EC09F012004C0E87EC09F0A5EC90
:1014700009F0610E87EC09F0A5EC09F012004C0EA2
:1014800087EC09F0A5EC09F0610E87EC09F0A5ECFA
:1014900009F0230E87EC09F0A5EC09F01200530EB9
:1014A00087EC09F0A5EC09F0690E87EC09F0A5ECD2
:1014B00009F01200E9EC09F0ADEC09F0F4EC09F0E8
:1014C000ADEC09F00FEC0AF0ADEC09F00FEC0AF00E
:1014D000ADEC09F0F4EC09F0ADEC09F0E9EC09F041
:1014E000ADEC09F0CEEC09F0ADEC09F0B3EC09F08D
:1014F000ADEC09F0B3EC09F0ADEC09F0CEEC09F07D
:101500001200E9EC09F0ADEC09F0E9EC09F0ADEC02
:1015100009F0CEEC09F01200E9EC09F0ADEC09F0AD
:10152000F4EC09F0ADEC09F00FEC0AF0ADEC09F0C9
:101530000FEC0AF0ADEC09F0F4EC09F0ADEC09F0B9
:10154000E9EC09F0ADEC09F0CEEC09F0ADEC09F0F6
:10155000B3EC09F0ADEC09F0B3EC09F0ADEC09F037
:10156000CEEC09F01200E9EC09F0ADEC09F0CEEC9C
:1015700009F0ADEC09F0B3EC09F01200CEEC09F083
:10158000ADEC09F0E9EC09F0ADEC09F0B3EC09F0D1
:10159000ADEC09F0CEEC09F0ADEC09F0E9EC09F0A6
:1015A000ADEC09F0F4EC09F0ADEC09F0E9EC09F070
:1015B000ADEC09F0B3EC09F0ADEC09F0CEEC09F0BC
:1015C000ADEC09F0E9EC09F0ADEC09F0F4EC09F050
:1015D0001200E9EC09F0ADEC09F0CEEC09F0ADEC4D
:1015E00009F0B3EC09F0ADEC09F0CEEC09F0ADEC8C
:1015F00009F00FEC0AF01200E9EC09F0ADEC09F08B
:10160000F4EC09F0ADEC09F00FEC0AF0ADEC09F0E8
:101610000FEC0AF0ADEC09F0F4EC09F0E9EC09F09C
:10162000ADEC09F0CEEC09F0ADEC09F0B3EC09F04B
:10163000ADEC09F0B3EC09F0ADEC09F0CEEC09F03B
:101640001200E9EC09F0ADEC09F0CEEC09F0ADECDC
:0A16500009F0B3EC09F012001200DB
:00000001FF
